:020000040800F2
:10000000F009002065020008513800085533000847
:100010004D380008C5180008993F0008000000008E
:10002000000000000000000000000000853800080B
:10003000C91800080000000081380008B93800081D
:100040007F0200087F0200087F0200087F0200088C
:100050007F0200087F0200087F0200087F0200087C
:100060007F0200087F0200087F0200087F0200086C
:100070007F0200087F0200087F0200087F0200085C
:100080007F0200087F0200087F02000800000000D5
:100090000000000000000000000000007F020008D7
:1000A0007F0200087F0200087F0200087F0200082C
:1000B0007F020008713900087F0200087F020008F3
:1000C0007F0200087F0200087F0200087F0200080C
:1000D0007F020008893F00087F020008000000003E
:1000E0007F0200087F0200087F0200080000000075
:1000F0000000000000000000000000007F02000877
:10010000000000007F0200087F0200087F02000854
:1001100000000000000000000000000000000000DF
:100120007F0200087F0200087F0200087F020008AB
:100130007F02000800000000000000000000000036
:100140000000000000000000000000007F02000826
:100150007F0200087F0200087F0200087F0200087B
:100160007F0200087F02000800000000000000007D
:10017000000000000000000000000000000000007F
:10018000000000007F0200080000000000000000E6
:100190007F02000800F002F800F054F80AA090E88E
:1001A000000C82448344AAF10107DA4501D100F032
:1001B00049F8AFF2090EBAE80F0013F0010F18BFAB
:1001C000FB1A43F001031847380F0100580F0100D4
:1001D000103A24BF78C878C1FAD8520724BF30C873
:1001E00030C144BF04680C60704700000023002445
:1001F00000250026103A28BF78C1FBD8520728BF37
:1002000030C148BF0B607047662905F0D987642963
:1002100000F0CC80002070471FB505F08EFF9DE8F0
:10022000030001F045F900F049FC04000020002122
:1002300005F0BAFDE06000F045FE1FBD10B500F00E
:10024000AAFE10BD00F012FF1146FFF7E5FF03F014
:1002500033FF01F0BFF803B4FFF7F0FF03BC01F078
:1002600019FA00000948804709480047FEE7FEE701
:10027000FEE7FEE7FEE7FEE7FEE7FEE7FEE7FEE756
:1002800004480549054A064B704700005D390008DF
:1002900095010008F0030020F0090020F00500207F
:1002A000F005002053EA020C00F069802DE9F04BC4
:1002B0004FF00006002B1FBFB3FA83F503FA05F4D5
:1002C00024FA05F65E4012BF1643B2FA82F502FA2E
:1002D00005F4C5F120051EBF22FA05FC44EA0C0412
:1002E000203556EA044C4FEA144418BF641C4FF002
:1002F00000084FF00009904271EB030C39D300293C
:1003000019BFB1FA81F701FA07F6B0FA80F700FADF
:1003100007F6C7F120071EBF20FA07FC46EA0C06C5
:100320002037B6FBF4FCA7EB0507103F07F01F0BC7
:10033000CBF120062CFA06F60CFA0BFB44BFB346B1
:100340000026202FA4BF5E464FF0000B5BEA060C90
:1003500008BF4FF0010B19EB0B0948EB0608ABFB8C
:10036000027C06FB02CC0BFB03CCC01B71EB0C0127
:10037000C1E70B46024641464846BDE8F08B13B53F
:10038000084318BF4FF0FF300146AFF30080BDE8CF
:100390001C4070470FB4044910B503AA029800F03E
:1003A0007BFB10BC5DF814FB740000202DE9F041CC
:1003B0000646002410687529314616A510D0AFF303
:1003C0000080002802DA404213A507E031688A075E
:1003D00001D512A502E0490704D511A5012401E0C9
:1003E000AFF3008000210A2206F1240709E0B0FBE8
:1003F000F2FCB0FBF2F302FB1C00303078541846DC
:10040000491C0028F3D123462A463046BDE8F04176
:1004100000F0DBB8000000002D0000002B00000001
:10042000200000002DE9F0474FF0000A89460446FD
:10043000C0F820A02046E1688847002876D025280B
:1004400006D0D4E901219047206A401C2062F1E7E0
:10045000E168204600258847C4F81CA0064600270E
:10046000C4F818A02A2E09D0304605F089FC38B30C
:1004700004EB8708303EC8F8186019E059F8041BEF
:10048000204604EB87029161E1688847012F064608
:1004900018D1E069002820DA25F020051DE0D8F801
:1004A000180000EB800006EB40003038C8F8180058
:1004B0002046E1688847064605F062FC0028EED138
:1004C000012F0AD02E2E08D12046E16888477F1CD4
:1004D0000646022F45F02005C4DBA069002803DA98
:1004E000404245F00105A061E80701D025F0100564
:1004F000B6B1A6F14100192802D8203645F40065AE
:100500004A463146204625604D46FFF77DFE58B1EC
:10051000012806D0ED1D25F0070000F1080989E744
:1005200004E005F1040985E730468AE7206ABDE862
:10053000F0874FF000020429C0F0128010F0030C85
:1005400000F01B80CCF1040CBCF1020F18BF00F8C6
:10055000012BA8BF20F8022BA1EB0C0100F00DB875
:100560005FEAC17C24BF00F8012B00F8012B48BFD3
:1005700000F8012B70474FF0000200B51346944677
:100580009646203922BFA0E80C50A0E80C50B1F1EB
:100590002001BFF4F7AF090728BFA0E80C5048BFFF
:1005A0000CC05DF804EB890028BF40F8042B08BF9D
:1005B000704748BF20F8022B11F0804F18BF00F899
:1005C000012B70477047704770472DE9F0470D4683
:1005D00099469246044600F124080168880604D52D
:1005E000E06921F01001216000E00120A84201DD56
:1005F000471B00E00027A1697A1902EB0900081ADD
:10060000A0612078C00602D42046AFF30080002607
:1006100008E0D4E901211AF806009047206A401C3E
:10062000761C20624E45F4DB2078C0060AD52046B1
:10063000AFF3008006E0D4E9012130209047206A22
:10064000401C2062381EA7F10107F4DC07E0D4E962
:10065000012118F805009047206A401C2062281EDE
:10066000A5F10105F3DC2046AFF3008020780006F9
:1006700002D50220BDE8F0870120FBE72DE9FF4FFE
:100680000C461E464FF0FF378BB0D2E90001DDF873
:1006900060800A908A46C1F30A5505B93D4600219B
:1006A00008464FF00000BAF1000F00F4400005DAF0
:1006B00000EB80004FF4400101EA50004FEA9059EE
:1006C000B9F1010F00DDB9460A9850EA4A000ED090
:1006D00044F61050A5F2FF3545432F14B8F1000F32
:1006E0001ED07542291E1EDDC9F100021CE0B8F1C2
:1006F000010F4FF0000001D0302103E0F24305E08C
:100700002154401CB042FBDB304600220021215422
:100710000B99C1F80880C1E900200FB0BDE8F08F47
:10072000BD1B6D1CDEE74A4600DA694206A800F0F0
:1007300067FA06AB93E8070003AB83E8070050466F
:100740000A9904F0F0FE8DE80700A0F500501F386C
:1007500000900398002D0ADD42F21F014A4608442A
:10076000002303A90390684605F059F909E0A0F5B4
:1007700000504A461F38002303A90390684605F03D
:1007800063F98DE807000004000C03D04FF0FF3040
:10079000410800E01046B8F1000F03D0002200929B
:1007A00015461EE0751E05D400F08CF930326255F6
:1007B0006D1EF9D5B3460122084302D000227F1CEA
:1007C00004E02078302801D100227F1E002A0997FA
:1007D00084D01DE0112D07DA00F074F93032625533
:1007E0006D1C50EA0102F5D1084302D00098C8B14F
:1007F0000EE00021681E05E0235C625C6354225415
:10080000401E491C8142F7DBAB46A81B401E0990E5
:10081000002004F80B000B98099AC0F80880C0E982
:10082000002B7AE711264FF0000857E72DE9F04F2B
:1008300088460446D21D22F0070191B0D1E900019B
:10084000CDE90A0105F037FA02460B98C00F01D036
:100850002D2007E02068810701D52B2002E0202110
:1008600001EAC000032A099001D0072A05DB0346EC
:100870004146204600F084F90BE12078800601D53E
:10088000E06900E00620B8F1650F814606D0B8F1B6
:10089000660F18D0B8F1670F70D131E00020B9F1C0
:1008A000110F009001DB112301E009F101030AAAF5
:1008B00001A90CA8FFF7E2FEDDE90C70002609F1A2
:1008C0000105834647E001204B4600904FF000476A
:1008D0000AAA01A90CA8FFF7D1FEDDE90DB00C9919
:1008E0005D46002610B909F101000D18B9EB0500AD
:1008F00003D4C0F1FF3609F10105A5EB09002BE097
:10090000B9F1010F01DA4FF001090020B9F1110F1F
:100910000090484601DD112300E003460AAA01A920
:100920000CA8FFF7ABFEDDE90C704D4600268346B0
:10093000207800070AD4AB4500DA5D4601A8012DF6
:1009400004DD411911F8011C302907D04F4502DAA6
:1009500017F1040F04DA012082460FE06D1EEEE766
:10096000002F02DCED1B3E4403E0781CA84200DDB2
:100970007D1CB81B00F1010A4FF0004720780007EA
:1009800003D4AA4501DB4FF0FF3A0021B7F1004F35
:100990000DF143088DF8431024D002202B23002FA3
:1009A00001DA7F422D230A21021EA0F1010000DCA2
:1009B0005FB197FBF1FC97FBF1F201FB1C7C174642
:1009C0000CF1300C08F801CDEEE7A8F1010003703E
:1009D0002188090501D5452100E06521A0F1010824
:1009E00000F8011C09980FA9A1EB0807FF1D00B131
:1009F0000120411901EBEA70A1693844081A401E30
:100A0000A0612078C00602D42046AFF30080099888
:100A100028B1D4E901219047206A401C2062207847
:100A2000C00622D52046AFF300801EE0002E04DB76
:100A3000B34502DD01A8805D00E03020D4E901214A
:100A40009047206A401C2062761CAAF101005FEAF0
:100A5000000A0AD100F032F8C0680168405CD4E9AD
:100A600001219047206A401C2062281EA5F1010543
:100A7000DCDC07E0D4E9012118F8010B9047206A7B
:100A8000401C2062381EA7F10107F3DC2046AFF3BB
:100A90000080032011B041E6074B70B50D467B4442
:100AA00000F05BF80446284600F01CF910B14FF046
:100AB000FF3070BD204670BDED5200000048704709
:100AC0003C01002030B5B0F10A0271F100034FEA99
:100AD000900E4EEA817EB0EB0E0061EB91014FEA81
:100AE000101E4EEA017E10EB0E0041EB11114FEA91
:100AF000102E4EEA016E10EB0E0041EB11214FEA71
:100B0000104E4EEA014E10EB0E0041EB1141401821
:100B100041F100014FEAD00040EA41704FEAD101B3
:100B20004FEA810444EA907410EB800544EB010421
:100B30006D1944EB0404521BA3414FF0000348BF5E
:100B40000A3200D530BD401C41F1000130BD00002B
:100B500001694A1C02610878704700B58FB0CDE981
:100B600001310021059105497944CDE90310114671
:100B70006846FFF757FC0FB000BD0000E5FFFFFF20
:100B80002DE9F0411F46044603260168072A01F4B7
:100B9000006004DB08B116A505E016A503E008B166
:100BA00015A500E015A521F010002060A069C01E69
:100BB000A0610FB1401EA0612046AFF300804FB18D
:100BC000D4E9012138469047206A401C2062C01CAD
:100BD000206206E0206AFAE7D4E9012115F8010B4A
:100BE0009047761EF8D22046AFF30080BDE8F08132
:100BF0004E414E006E616E00494E4600696E6600C1
:100C00002DE9F047814616468AB0354878440DC82C
:100C10008DE80D0032487844801C03AC0DC884E890
:100C20000D0041F69B300844372190FBF1F290FB18
:100C3000F1F5A5F1800501FB12041B3C02D56442CD
:100C4000012000E00020DFF898A080460027FA4449
:100C5000AAF1BE0A0EE0E0070AD03246684607EB6A
:100C6000470101230AEB810104F0EEFE8DE8070045
:100C700064107F1C002CEED1194F7F44AE3F19E069
:100C8000E80715D007EB04100DF1180A90E80E00E4
:100C90008AE80E00C068F04201D1981908903246E7
:100CA000012306A903A804F0CFFE03AB83E80700E5
:100CB0006D10641C002DE3D14FF0010332466946EC
:100CC000B8F1000F03A802D004F0A9FE01E004F07F
:100CD000BBFEC9E90001C9F808200AB0BDE8F087E9
:100CE00030560000007B00F0800070472DE9F0478F
:100CF00005460C46C86820F4201040F48000C86007
:100D0000800602D5084600F0A6FAE06841F28201AA
:100D10004FF0FF390140022903D0204600F044FA89
:100D2000B5E000F42041B1F5004F0FD1C00306D566
:100D30006168E06A884200D80846606006E0206981
:100D4000E0626060606900F086F9A061A06800223E
:100D5000EEB200280DDAE1688B050AD4C043A0602A
:100D600041F490302260E0606068411C6160067070
:100D7000A5E0E0689046226040F40050E060206901
:100D800068BB606900F059F9012704F12405A0B19E
:100D9000A08910F4407F08D0E06900F08CF9206150
:100DA00018B1E06840F4006016E0E7612561E06892
:100DB00020F4407040F480600EE0E06900F07BF9C0
:100DC00000282061F1D0E06840F4006010F4407F1A
:100DD000E06002D140F48070E06020696060E0680B
:100DE00025696FF0010AC1051FD56168E06A884274
:100DF00000D80846411B04D02246284600F0DEF900
:100E0000F0BBE068010203D5E562C4E9015854E093
:100E1000691CE1626160E16940F48030491EC4E907
:100E2000021030462E70BDE8F087010202D500F4B2
:100E300080320AE06068411C61600670E0680A2E3A
:100E400040F48030E06006D00022E16A60688142B0
:100E500003D90B4602E00122F7E70346A7895B1B93
:100E60007F0503D4E7699F4200DDE2B1814200D8EB
:100E70000146E5620F1AC4E90158002B09DD00E0C4
:100E800005E022461946284600F098F908B1484680
:100E9000C9E747B1A069E5626560C01BA061E06871
:100EA00040F01000E060E068000208D56168A069C9
:100EB000E562491B08446560A0615046B3E73046CF
:100EC000B1E7000010B542485421FFF754FB4148F8
:100ED0005421FFF750FB40485421FFF74CFB3F499A
:100EE0003B483C4A3F4B08603D490A603A4919601B
:100EF000531C0365481C1065012008653B48344AB3
:100F000039A1784400F0C8F920B9384878440A3843
:100F100000F069FA37482F4A35A1784400F0BCF94F
:100F200020B9344878440A3800F05DFA32482A4A39
:100F30002FA1784400F0B0F920B92F4878440A383E
:100F400000F051FA40232248DC000021224600F044
:100F500008F920B125487844543800F044FA1D4877
:100F600022464023002100F0FCF820B121487844BB
:100F7000543800F038FA184822461023002100F0B7
:100F8000F0F8002806D01C487844BDE810405638D8
:100F900000F029BA10BD104870B5006D20F00104B2
:100FA0000B4800F0F1F90B4800F0EEF90A4800F0A8
:100FB000EBF909E0206D20F00105204600F0E4F98E
:100FC000204600F0A7F82C46002CF3D170BD00009D
:100FD0002000002074000020C80000200000002035
:100FE000040000200800002072000000525300009E
:100FF000770000003E5300002A5300000EB5CDE9F3
:10100000000100F027FB029069460120ABBE0EBD37
:1010100008B5694600900220ABBE08BD1FB58DE83B
:10102000070069460520ABBE04B010BD1FB58DE8B2
:101030000F0069460620ABBEF6E708B5694600908A
:101040000920ABBE08BD1CB5CDE9000169460A20E8
:10105000ABBE1CBD704708B5694600900C20ABBE06
:1010600008BD0000004870471C0100207546FFF7CE
:10107000F9FFAE4605006946534620F00700854655
:1010800018B020B5FFF7FCF8BDE820404FF000068F
:101090004FF000074FF000084FF0000BAC46ACE8F3
:1010A000C009ACE8C009ACE8C009ACE8C00921F04F
:1010B00007018D46704770B5064600F0DDF90568FA
:1010C00006F10B0020F00704B4429CBF002070BD65
:1010D0002B466A68BAB11068A04210D304F1080127
:1010E00088423CBF5068586007D35168101941606E
:1010F0001168091B016058601460101D70BD134613
:101100005268002AE7D12146284600F0BDF90028A0
:10111000DED170BD70B50446051F00F0ADF9006862
:10112000002C14BF446870BD002C18BFAC423CBFFB
:1011300020466468F8D301680A18AA4218BF4560BF
:1011400003D12A6805461144016028684119A1426B
:101150001CBF6C6070BD61686960216808442860CC
:1011600070BD70B5C468A50713D0650211D4B2F57F
:10117000807F09D0B2F5007F06D0B2F5806F08D12C
:10118000012300F1240106E05D1E6FF07F46B542A9
:1011900001D3012070BD0161C361416024F470611D
:1011A0001143C160002070BDC16821F4001141F0FD
:1011B0008001C16000218160016070472DE9F04726
:1011C000814614460E464FF0FF383248D5685769BD
:1011D000054209D03846A169FFF735FF002811DB29
:1011E0002C48C0430540E5602B4632464946384608
:1011F000FFF714FFA16920F00042B21A1144002841
:10120000A16103D02046FFF7CFFF4046BDE8F0873D
:1012100070B504460569C06A6168884200D808460E
:10122000E16821F42011E160C90312D5A84208D079
:101230002246411B2846FFF7C1FF10B14FF0FF3097
:1012400070BD0020E562C4E90150E06820F4803000
:10125000E060002070BD10B50446C06820F020009A
:10126000E060A16AA06988420DD02046FFF7D0FF58
:10127000E06820F4405040F01000E060A06AA061F7
:101280002069E062606044F24001E0688843E06009
:1012900010BD0000100002002DE9F0410C4616467A
:1012A000070047D0104600F06FF82078611C6128D5
:1012B0000AD0722802D077283CD102E00125002410
:1012C00005E00225042402E0082448F2020511F892
:1012D000010B2B2806D0622809D011F8010C7428C4
:1012E0000AD00BE045F0030544F00204EFE745F0B7
:1012F000040544F00104EAE744F0100438462146AE
:10130000FFF77CFE411C15D00021316171604FF464
:101310000071F560F1617061200704D5304602224A
:10132000002100F0FBF8306D40F0010030653046E0
:10133000BDE8F0810020FBE72DE9F0410D460646AF
:10134000104C206DC10704D0410804D020F00104E6
:10135000F7E722460EE05420FFF7ADFE07000ED05F
:10136000206D47F001010843542120653846FFF7FE
:1013700002F93A4629463046BDE8F0418CE70020A4
:10138000D6E70000200000202DE9F04704464FF08A
:1013900000094FF0FF37C568D4E90486A80707D0D5
:1013A0002046FFF735FF3046FFF732FE002802DA0D
:1013B0003846BDE8F087280502D54046FFF7AAFE6B
:1013C0004C212046FFF7D7F8206D20F00100206562
:1013D0004846EEE710B50446AFF300802046BDE86E
:1013E0001040FEF738BF10B500F01AF9BDE8104004
:1013F00000F010B90000000030B44FF0013C50F88C
:10140000042B51F8043BCCFA52F4D51A20D1FCB984
:1014100050F8042B51F8043BCCFA52F4D51A17D1EA
:10142000B4B950F8042B51F8043BCCFA52F4D51A55
:101430000ED16CB950F8042B51F8043BCCFA52F49D
:10144000D51A05D1002CDAD030BC4FF0000070471F
:1014500029BAB1FA81F111F01801D1F120008440CC
:10146000F2D1CA40CB4012F0FF0213F0FF0330BCB0
:10147000D01A7047704700000048704724010020D0
:10148000704770477047704738B504460A460020D9
:101490006946AFF30080002808BF38BD02460099B6
:1014A000204600F0FDF8012038BD012000F04CB9C5
:1014B000F8B5AFF30080054600200C46102000BFB1
:1014C0000646A819A0420DD9324669460020AFF35E
:1014D0000080070008BF00F037F90098A04218BF4D
:1014E0000546C419FFF7C8FF05600746F01D20F048
:1014F00007004619284600F00AF8B44208BFF8BDB4
:10150000A21B31463868BDE8F84000F0C9B8002198
:101510000160C0E901107047102070472DE9F041CB
:10152000044616460D464769007B80072ED0384694
:10153000FFF783FD50BB3EB3012E02D0022E25D112
:1015400004E0204600F0C6F805441DE03846FFF7E9
:1015500082FDE168002841F01001E16005DA2046D3
:10156000FFF722FE0120BDE8F081C9030BD56268B8
:10157000E16A914200D81146A26911442269891A90
:10158000814200DD08460544002D01DA0220EAE729
:10159000E16A6068E268814206D29103E06203D5A5
:1015A00022F4003141F01002A6690027AE4213DC9C
:1015B000E16A814201D90B4600E0034603EB060CC9
:1015C0002369ACEB030CAC4506DD814201D98C46A6
:1015D00000E084469C4505D1A760276042F02000CA
:1015E000A5620DE0AD1BE669AE1B8142A66000D985
:1015F0000846C01A281A20605819606022F020009E
:1016000003490840E060002084F84870ABE7000020
:10161000BFCFD7FF002801D000F03CB870470000D2
:1016200010B5014602A000F076F8012010BD0000C0
:1016300053494752545245443A2052656469726591
:1016400063743A2063616E2774206F70656E3A2070
:101650000000000010B5431C02E010F8011B71B13E
:101660008107FAD14FF0013202C88C1A8C4314EA78
:10167000C211F9D0C01A0A0603D0C01E10BDC01A8C
:1016800010BD0A0401D0801E10BD0902FCD0401E0E
:1016900010BD000001491820ABBEFEE72600020085
:1016A000034640688C46002818BF88423CBF03466A
:1016B0004068F8D318681844884207D00CF103003A
:1016C00020F00700001D411A521A0146081D0A6049
:1016D000FFF720BD10B50146C268900703D0900601
:1016E00007D5886A0AE000F03DF801210160881EF4
:1016F00010BD8B69486818440B69C01A91F84830CE
:101700001BB191F84910401A10BD1103FCD50028F7
:10171000FADD401E10BD70B505460C460A2000E0FB
:101720006D1C00F018F835B128780028F8D102E0D7
:10173000641C00F010F814B120780028F8D1BDE83E
:1017400070400A2000F007B810B500F00FF8BDE8AF
:101750001040FFF75FBF08B569468DF80000032011
:10176000ABBE08BD004870471C01002010B5012821
:1017700005D0002103A0FFF7CEFF012010BD09A175
:10178000F8E7000053494752544D454D3A204F75F4
:1017900074206F662068656170206D656D6F727969
:1017A000000000003A2048656170206D656D6F7221
:1017B0007920636F727275707465640010B542F2BF
:1017C0000432C4F20102116821F440311160D2F8F0
:1017D00000C090E80A4043EA0C03C46813604A68FA
:1017E00022F480724A6002694B6843EA02224A602E
:1017F0004A6822F040724A604A6842EA0E024A6031
:101800008A6822F400628A608A6822438A60826A57
:101810008B68012423F070638B608B68C0F60074C2
:10182000A24202D123F0405208E01A438A608A683B
:1018300022F040528A60C26A8B681A438A608A68C2
:1018400022F002028A608A68037E90F8204042EA11
:1018500043028A604A6884B142F400624A604A687E
:101860004EF2000322F460424A60426ACFF6FF73F0
:101870004C6803EB4232224301E022F400624A60EA
:10188000CA6A40F2000C22F47002CA62C36942695B
:10189000CFF6F07CCC6A0CEB03532343CB628B680E
:1018A00023F400738B6090F830008B6843EA40208B
:1018B0008860886820F480608860886840EA8220B8
:1018C000886010BDFEE7000070470000EFF3108055
:1018D00072B600BFFEE7000070B581B00022009232
:1018E00090F83C20012A01D1022156E00E68012225
:1018F0001FFA86FC80F83C204FEA4C0212FA86F36D
:1019000002680A2E32BF10321E3B0C324FF0070E17
:1019100015680EFA03F4A54315608D68146805FA7E
:1019200003F3234313604968062906D8026801EBD4
:101930008101053902F134030AE00C2901EB810130
:10194000026887BF413902F12C03233902F13003C9
:101950001F221C688A4024EA02021A601A680CFAE4
:1019600001F1114342F2043E1960C4F2010E016814
:10197000122EAEF5417208BF914205D1DEF800305B
:1019800043F48003CEF8003026F00103102B08BF8B
:10199000914205D0002180F83C10084601B070BD8E
:1019A000DEF80010102E41F40001CEF80010F1D145
:1019B00040F20C01C2F2000109684DF68362C4F2E4
:1019C0001B32A1FB0212910C01EB8101490000BF07
:1019D000009100990029DDD000990139F8E7000055
:1019E0000068C06C70470000B0B510B30446006CCE
:1019F00030B9204600F020F80020606484F83C00F4
:101A0000206C0125C0060FD4206C41F202118843DE
:101A1000023020642046FFF7D1FE00206064206C75
:101A200065F3010000252064002084F83C0028466E
:101A3000B0BD0120B0BD000080B586B00022059287
:101A4000CDE9032242F200010068C4F2010188429C
:101A50000292019201D006B080BD43F630000092A0
:101A6000C4F20200436943F480734361436903F4A1
:101A700080730093009B0092036843F001030360AE
:101A8000006800F0010000900098022001900320FF
:101A9000CDE9020201F5604001A900F053F906B05A
:101AA00080BD0000F0B581B0044600680D46826834
:101AB000520544BF80685FEAC0502BD400F00EFA94
:101AC00021680A68920715D406466F1C08E000BF1B
:101AD00020680068800727D521680868800709D436
:101AE000002FF9D0002DF3D000F0F8F9801BA842A8
:101AF000EED8F1E76FF012000860206C40F400703F
:101B00002064886810F0405F01D1207EB0B10020D1
:101B100001B0F0BD206C40F020002064002084F86B
:101B20003C00012001B0F0BD206C40F004002064B6
:101B3000002084F83C00032001B0F0BDC86A10F416
:101B4000700F02D088684005E1D4206C20F48070CA
:101B50002064206CC004DAD4206C40F001002064C2
:101B6000D5E7000081B00021009190F83C100129D8
:101B700002BF022001B070470122016880F83C20BA
:101B80008A68D20718D18A684DF6836342F0010251
:101B90008A6040F20C02C2F200021268C4F21B33E7
:101BA000A2FB03239A0C02EB420200BF0092009AB0
:101BB00012B1009A013AF9E78B68026CDB0707D192
:101BC00042F010010164416C41F00101416434E0D4
:101BD00040F201739A4302F5807202644A6852052A
:101BE00004D5026C012363F30D320264026C4FF0E2
:101BF000000CD2044FF0000244BF426C22F00602F7
:101C000042F20003426480F83CC06FF02200C4F24C
:101C100001030860D3F80403C00606D099420CD132
:101C2000986810F0405F08D103E0886810F0405FCA
:101C300003D1886840F080408860002001B0704780
:101C400090F83C10012904BF02207047012102686E
:101C500080F83C10916821F0010191609168C907FA
:101C600005D1016C41F2011291430131016400215F
:101C700080F83C100846704770B5866D044600F049
:101C80002DF994F83510022925D105462068216CDC
:101C9000026822F016020260426922F0800242616C
:101CA00009B9A16C19B1016821F00801016001684E
:101CB00021F00101016000BF20680068C0070ED05C
:101CC00000F00CF9401B0628F6D3202060650320A5
:101CD00084F835000CE080206065012008E0E06DAC
:101CE0003F2101FA00F0B060012084F835000020A7
:101CF000002184F8341070BD90F83510022909D104
:101D0000052180F835100068016821F001010160AB
:101D1000002070478021416501207047B0B504461E
:101D200000F0DCF8054640F21400C2F20000007832
:101D3000611C18BF044400BF00F0D0F8401BA04253
:101D4000FAD3B0BD2DE9F04F83B000F13E4202F16D
:101D5000FF724FEAB22241F200070192C4F2020779
:101D600007224FF0010E00254FF0000A4FF0000847
:101D7000B84208BF042200920AE000BF08F101083F
:101D80000AF1040AB8F1100F05F1020500F0A28073
:101D90000C680EFA08FB14EA0B09EFD04C6804F04B
:101DA000030CACF1010EBEF1010F11D803228768BC
:101DB00002FA05F6CA68B743AA403A43826042680D
:101DC000C4F3001722EA0B0207FA08F73A4342600D
:101DD000BCF1030F1CD0C26803238E6803FA05F719
:101DE000BA4306FA05F73A43BCF1020FC2600FD1BD
:101DF0006FF0030202EA580202440AF01C060F23A5
:101E0000176A03FA06F40B69A743B3403B43136216
:101E1000026803234F68AB409A4307F00303AB40CB
:101E20001A4317F4403F4FF0010E0260A6D0002283
:101E300043F644030292C4F202031A6843F60044D4
:101E400042F480421A601A68C4F2010402F480422B
:101E50000292029A28F003024FF6084B2244CFF672
:101E6000FF7B52F80B300AF00C070F26BE4023EA26
:101E7000060C019B009E042B38BF1E4606FA07F78E
:101E800047EA0C0342F80B3022684B6842EA090724
:101E9000DE0358BF22EA0907276062689E0342EA10
:101EA000090758BF22EA09076760A268DE0242EA12
:101EB000090758BF22EA0907A76043F60C47C4F296
:101EC00001073A689B0242EA090358BF22EA090364
:101ED0003B6053E703B0BDE8F08F000040F2E8300C
:101EE000C2F200000068704770B5B0B3044690F8C5
:101EF0003D0028B9002084F83C00204600F058F945
:101F0000242084F83D002068016821F0010101606F
:101F1000016841F400410160016821F40041016061
:101F200000F0D2FA48F28041C0F21E0140F60012E1
:101F3000666888424FF00001C0F23D0248F2A16C91
:101F40004FF0000338BF01219042C0F2010C38BFAE
:101F50000123664538BF0B460BB1012070BD4DF61D
:101F60008361C4F21B31A0FB01122168930C4D6800
:101F7000664525F03F0545EA92424A600A6A22F02A
:101F80003F0C09D34FF496725A4344F6D353C1F22F
:101F90006203A2FB03239B095A1C42EA0C020A6259
:101FA00048F2A063CA69C0F201039E424CF6FF7377
:101FB00022EA030C0AD801387200B0FBF2F00130BB
:101FC0006FF31F30042898BF04202BE0A368A0F112
:101FD000010E9BB119207043BEFBF0F004220130CA
:101FE00062F31F30000512D09BB119207043BEFB75
:101FF000F0F00422013062F31F3011E006EB4600DE
:10200000BEFBF0F001306FF31F300005ECD1012072
:1020100008E006EB4600BEFBF0F001306FF31F3026
:1020200040F4004040EA0C00C8610868D4E9072386
:1020300020F0C000104318430860886848F2FF325F
:1020400004F10C0690434CCE18431043A5698860F8
:10205000C86820F0FF0030432843C860086840F09B
:102060000100086000202021206484F83D102063D6
:1020700084F83E0070BD00002DE9F04782B01E4696
:10208000174689460446FFF729FF94F83D1020299A
:102090000ED102210546C0F210012046012219236B
:1020A000009501F0F9F918B994F83C00012803D122
:1020B000022002B0BDE8F0870121206884F83C10BE
:1020C0000168DDF82880C90703D1016841F00101EA
:1020D000016001684FF0000A21F4006101602120D5
:1020E00084F83D00102084F83E00C4F840A06762E8
:1020F0006685608D494620850020CFF6FF70E0623E
:10210000204642462B4601F03FF918B1012002B0AB
:10211000BDE8F087CDF804A020684169019180698D
:102120000190019806E000BF204641462A4601F092
:1021300083F920BB208D58B3204641462A4601F042
:1021400031FAE0B9606A2168024612F8013B0B617E
:102150006262628D013A6285228D571E27854B6926
:102160003F0418BF13F00403DED0437802300B6144
:102170006062608D01386085901E2085D4E7206CF8
:102180000428C3D12068016841F400710160BDE7F3
:102190002068016841F400710160202084F83D004E
:1021A000002084F83E0084F83C0002B0BDE8F087CF
:1021B0002DE9F04786B0002640F20044CDE90466E0
:1021C000CDE90266C4F202040068A4F5D631884263
:1021D000019602D006B0BDE8F08743F630070096BE
:1021E000C4F20207386801AD40F002003860386878
:1021F0004FF0120800F00200009000984FF4806049
:10220000019004204FF001094FF0030A0590204689
:102210002946CDF80880CDF80C90CDF810A0FFF736
:1022200091FD082001A981E80107092005902046B9
:102230002946FFF787FD0096386940F48000386131
:10224000386900F480000090009806B0BDE8F0877F
:1022500040F2140040F2E831C2F20000C2F2000184
:1022600000780A68104408607047000080B543F6A3
:102270000040C4F20200016841F40071016001688D
:1022800041F480610160016841F4807101600320C4
:1022900000F060F8002000F005F800F02BF80020B6
:1022A00080BD0000B0B540F21402C2F2000240F25C
:1022B0000C011278C2F200014FF47A730968B3FB83
:1022C000F2F20446B1FBF2F1084600F0F7FA0F2CE7
:1022D0004FF001050CD858B94FF0FF3021460022CD
:1022E000002500F027F840F21800C2F20000046058
:1022F0002846B0BD82B0002043F640010190C4F2F0
:1023000002014A6842F480424A604A6802F480420C
:102310000192019A0090086840F0805008600868B7
:1023200000F080500090009802B0704780B501F036
:1023300035FE80BD70B514460D46064601F03EFEE2
:102340002946224601F086FA0146304601F03EFE5B
:1023500070BD000080B501F04BFE80BD2DE9F0415D
:10236000002800F08B8043F60808C4F202080446F7
:10237000D8F8F8030D4600F00700884207D288F825
:10238000F853D8F8F80300F00700A84276D1206887
:10239000810717D5410705D5D8F8001041F4E05161
:1023A000C8F80010010705D5D8F8001041F46041C5
:1023B000C8F80010D8F80010A26821F0F00111430D
:1023C000C8F80010C0073FD1D8F8F80300F00700A4
:1023D000A84207D988F8F853D8F8F80300F00700A6
:1023E000A8424BD12068410707D5D8F80010E26811
:1023F00021F4E0511143C8F80010000708D5D8F8BF
:102400000000216920F4604040EAC100C8F80000E3
:1024100000F07EF8D8F8001046F26422C1F30311F0
:10242000C0F60002515C40F20C0220FA01F140F2C9
:102430001800C2F200000068C2F200021160FFF74B
:1024400031FF0020BDE8F0816068811E022907D2BB
:1024500058F8081C89015CBF0120BDE8F08110E03C
:10246000012807D158F8081C89035CBF0120BDE88A
:10247000F08106E058F8081C890702D40120BDE865
:10248000F081D8F8001021F003010843C8F80000DB
:10249000FFF724FD064641F2883700BFD8F8000058
:1024A000616800F00C00B0EB810F8DD0FFF716FDD6
:1024B000801BB842F2D90320BDE8F08140F20C0045
:1024C000C2F200000068704780B5FFF7F7FF43F6DF
:1024D0000801C4F20201096846F27422C1F38221A4
:1024E000C0F60002515CC84080BD000080B5FFF717
:1024F000E5FF43F60801C4F20201096846F27422BE
:10250000C1F34231C0F60002515CC84080BD0000FA
:1025100010B543F60404C4F20204606800F00C0035
:1025200008280AD0042819BF42F20040C0F2F40083
:1025300047F64000C0F27D1010BD20682168236876
:10254000490247F64001C0F27D1100F03F02C3F39B
:1025500088105CBF42F20041C0F2F401A1FB00010F
:102560000023FDF79FFE21680222C1F3014102EB27
:102570004101B0FBF1F010BD2DE9F04182B000281F
:1025800000F09F800446007843F60006C007C4F2BE
:10259000020641D0B06800F00C00042805D1306874
:1025A000800339D56068B8BB8BE0B06800F00C00E0
:1025B000082802D170684002F1D46568B5F5803F03
:1025C00006D03068B5F5A02F06D140F480203060E9
:1025D000306840F4803005E020F4803030603068AE
:1025E00020F480203060FFF779FC002D054610D0E4
:1025F0003068800310D4FFF771FC401B6428F7D9C2
:1026000022E100BFFFF76AFC401B64284FF0030083
:1026100054D830688003F5D4207880071AD5B06884
:1026200010F00C0F09D0B06800F00C00082840F042
:102630008C807068400200F188803068800702D585
:10264000E06801283DD13068216920F0F80040EAB7
:10265000C10030602078000737D4207840074AD482
:10266000A56955B3B06800F00C00082840F0A080C0
:10267000012D26D07068E16900F480028A4220D1E1
:10268000216A00F03F028A421BD147F6C071626A9C
:102690000140B1EB821F14D1A16A4FF6FF73C90349
:1026A000994300F44032A1F580318A4209D1E16AB0
:1026B00000F07060B0EB016F03D1002002B0BDE804
:1026C000F081012002B0BDE8F0816069002840F28D
:1026D0000000C4F247205AD00121C0F8801EFFF745
:1026E000FDFB0546706F8007B7D4FFF7F7FB401B73
:1026F0000228F7D9A8E0306C4FF00008C0000CD4D5
:10270000CDF80480306C4FF0010840F08050306408
:10271000306C00F080500190019847F20007C4F23D
:1027200000073868C00525D4386840F480703860E8
:10273000FFF7D4FB054600BF3868C0051AD4FFF781
:10274000CDFB401B0228F7D97EE0E068002851D07D
:102750000020C4F2472001210160FFF7BFFB0546BE
:10276000306880073FF56FAFFFF7B8FB401B0228CA
:10277000F6D969E0A568012D05D0306F052D4DD142
:1027800040F004003067306F40F001004CE0002161
:10279000C0F8801EFFF7A2FB054600BF706F8007E0
:1027A0007FF55BAFFFF79AFB401B0228F6D94BE0A1
:1027B0000027C4F2472700203866FFF78FFB022D61
:1027C00005460BD13068800156D5FFF787FB401BCB
:1027D00002284FF00300F5D970E700BF3068800190
:1027E0007FF56BAFFFF77AFB401B02284FF0030029
:1027F000F4D963E70020C4F2472000210160FFF70D
:102800006DFB0546306880077FF524AFFFF766FB58
:10281000401B02284FF00300F4D94FE720F00100DD
:102820003067306F20F004003067FFF757FB002D52
:10283000054641F2883713D0306F800713D4FFF775
:102840004DFB401BB842F7D9032002B0BDE8F08130
:10285000FFF744FB401BB8424FF003003FF62EAF9A
:10286000306F8007F4D4B8F1000F3FF4F9AE306C4C
:1028700020F080503064F3E604F11C052FCD0843AE
:1028800040EA8210D9034FF6FF729143A1F58031DF
:1028900040EA05600843706001203866FFF71EFBC0
:1028A000044600BF306880013FF507AFFFF716FB15
:1028B000001B02284FF00300F4D9FFE680B500F0BA
:1028C000E3FF80BD704700007047000010B590F82E
:1028D0003C20012A4FF0020240D0012380F83C3016
:1028E00080F83D200268D2F804E0D2F808C00C68F5
:1028F0002EF07003234340F6FF34C4F20004A242DA
:1029000053600FDCB2F1804F1DD040F20043C4F29F
:1029100000039A4217D040F60003C4F200039A4223
:1029200011D015E040F60043C4F200039A420AD0E9
:1029300044F20003C4F201039A4204D00023C4F21B
:1029400001039A4204D149682CF080031943916035
:102950000121002280F83D1080F83C20104610BD77
:10296000002804BF0120704710B5044690F83D00D0
:1029700028B9002084F83C00204600F01FF802200F
:1029800084F83D002068211D00F0FAFF012084F842
:10299000460084F83E0084F83F0084F8400084F844
:1029A000410084F8420084F8430084F8440084F82D
:1029B000450084F83D00002010BD000080B582B0C5
:1029C000006840F20041C4F20001884201D002B028
:1029D00080BD0020019043F64000C4F2020001686F
:1029E000002241F0020101600068002100F00200B5
:1029F000019001981D20FFF79DFC1D20FFF796FC1C
:102A000002B080BD10B5044690F83C0001284FF09C
:102A1000020008BF10BD012284F83C2084F83D006C
:102A200020684FF6777382689A4382600A684F2A5B
:102A30000FDC1F2A22DD202A23D0302A21D0402A71
:102A40004DD14B68CA68194601F0ECF82068402166
:102A50003BE06F2A17DDB2F5005F20D0B2F5805F52
:102A60002AD0702A3BD1D1E9012CCB68614601F014
:102A700007F82068816841F077011AE00AB1102A4E
:102A80002DD1114621E0502A18D0602A27D14B6859
:102A9000CA68194601F0D8F82068602115E0D1E92C
:102AA000012CCB68614600F0EBFF2068816841F49F
:102AB0008041816000200BE0002009E04B68CA687B
:102AC000194601F0AFF82068502100F0E5FF002022
:102AD000012184F83D10002184F83C1010BD012034
:102AE000F6E700007047000010B504460068016971
:102AF000890744BFC1685FEA817138D420680169E1
:102B0000490744BFC1685FEA41713CD4206801694C
:102B1000090744BFC1685FEA017141D420680169B7
:102B2000C90644BFC1685FEAC16145D42068016934
:102B3000C9071CBFC1685FEAC1714AD12068016939
:102B4000090644BFC1685FEA016149D42068016990
:102B5000490644BFC1685FEA416148D42068016901
:102B6000890644BFC1685FEA816147D410BD6FF038
:102B700002010161012121778069800745D020464B
:102B8000FFF7B0FF47E06FF00401016102212177F8
:102B9000806910F4407F41D02046FFF7A3FF43E057
:102BA0006FF00801016104212177C06980073ED0E0
:102BB0002046FFF797FF40E06FF010010161082108
:102BC0002177C06910F4407F3AD02046FFF78AFF92
:102BD0003CE06FF001010161204600F069F9ADE7CA
:102BE0006FF0800101612046FFF76CFEAEE76FF0E9
:102BF00040010161204600F05DF9AFE76FF0200170
:102C000001612046FFF760FE10BD204600F066F827
:102C1000204600F0E1F8002020776FE7204600F022
:102C20005DF8204600F0D8F8002020776EE72046B7
:102C300000F054F8204600F0CFF8002020776DE730
:102C4000204600F04BF8204600F0C6F80020207720
:102C50006CE70000F0B587B000260696CDE9046663
:102C600040F200450068C4F20005A84203960296AF
:102C700001D007B0F0BD43F630000196C4F2020067
:102C8000016802AC41F0010101600168022701F016
:102C90000101019101990196016841F00201016071
:102CA0000068214600F0020001900198C0200290C7
:102CB00005F5FE30CDE90376CDE90567FFF742F86B
:102CC0000120CDE9020705F500302146CDE9046673
:102CD0000697FFF737F807B0F0BD00007047000017
:102CE000B0B5044690F83C00012804BF0220B0BDF6
:102CF0000D464FEAB2010120032984F83C0037D881
:102D0000DFE801F0020A12222068294600F0CCFE1A
:102D1000206850F8181F0EE02068294600F0F4FEE5
:102D2000206850F8181F16E02068294600F020FFA0
:102D3000206850F81C1F41F008010160016821F073
:102D40000401016029690FE02068294600F044FF72
:102D5000206850F81C1F41F400610160016821F4F3
:102D60008061016029690902026811430160002045
:102D7000002184F83C10B0BD002804BF012070473A
:102D800010B5044690F83D0028B9002084F83C00B6
:102D9000204600F01FF8022084F83D002068211D25
:102DA00000F0EEFD012084F8460084F83E0084F82F
:102DB0003F0084F8400084F8410084F8420084F821
:102DC000430084F8440084F8450084F83D00002066
:102DD00010BD00007047000070470000B0B5044609
:102DE00041B1082909D0042914BF04F1410004F1BC
:102DF0003F0004E004F13E0001E004F140000078EF
:102E000001281CBF0120B0BD022041B1082909D012
:102E1000042914BF84F8410084F83F0004E084F8DA
:102E20003E0001E084F84000206844250122C4F2FD
:102E3000010500F013FE2068A5F14401884203D18A
:102E4000296841F40041296040F6FF31C4F20001D5
:102E500088420FDCB0F1804F1DD040F20041C4F237
:102E60000001884217D040F60001C4F200018842F8
:102E700011D017E040F60041C4F2000188420AD0A8
:102E800044F20001C4F20101884204D00021C4F2DE
:102E90000101884206D1816801F00701062904BFBB
:102EA0000020B0BD016841F0010101600020B0BD0B
:102EB0007047000070470000704700007047000036
:102EC00070B582B0036804461868D9685D6900F07F
:102ED0002F02202A01F0200205D122B1204600F065
:102EE00001FF02B070BD5FEA007C08D005F0010E62
:102EF00011F4907F8EF001054DD1002D4BD0226B47
:102F00000840C1063DD5012A3BD100200190186838
:102F100001905868019001985869400600F19A8024
:102F2000A08DE18DE28D002A1CBF401A5FEA0041AE
:102F300002D102B070BD00BF216851E8031F2268B2
:102F400021F4907142E80313002BF5D1216851E878
:102F5000051F226821F0010142E80513002BF5D17D
:102F6000202184F83E100021216300BF216851E830
:102F7000031F226821F0100142E80313002BF5D152
:102F8000ACE0010600F1B0804006D2D5204600F04A
:102F90009DFE02B070BDC30718BF11F4807303D04B
:102FA000236C43F00103236400F00406012383EA49
:102FB00096062E4303D1266C46F00206266400F0E6
:102FC000020683EA56032B4303D1236C43F0040328
:102FD000236452EA0E0218BF0122BCF1000F04D58F
:102FE0001AB1226C42F008022264226C002AA0D09E
:102FF0000840800602D5204600F074FE2068406933
:10300000216C00F0400001F00801401876D0204605
:1030100000F034FE2068406940066AD5206850E818
:10302000050F216820F0400041E80502002AF5D193
:10303000A06B00285DD043F66D41C0F6000101652C
:10304000FEF75AFE00283FF474AFA06B016D88476D
:1030500002B070BDA06B016849688AB2002A3FF4D3
:1030600068AFA38D9A42BFF464AFE185C069B0F543
:10307000807F30D0206850E8030F216820F48070F2
:1030800041E80302002AF5D1206850E8050F2168C5
:1030900020F0010041E80502002AF5D1206850E83F
:1030A000050F216820F0400041E80502002AF5D113
:1030B000202084F83E000020206300BF206850E8F4
:1030C000030F216820F0100041E80302002AF5D127
:1030D000A06BFEF7D1FDA08DE18D401A81B2204694
:1030E000FFF7EAFE02B070BD204600F0E5FE02B038
:1030F00070BD2046FFF7E2FE02B070BD2046FFF72C
:10310000DDFE0020206402B070BD0000002804BF76
:103110000120704710B5044690F83D0028B9002002
:1031200084F83C00204600F021F8242084F83D007B
:103130002068C16821F40051C160204600F034FECF
:103140002068016921F490410161416921F02A015F
:103150004161C16841F40051C16000202021206418
:1031600084F83D1084F83E1010BD000080B586B094
:1031700000220592CDE9032241F200010068C4F269
:10318000010188420292019201D006B080BD43F64F
:1031900030000092C4F20200436943F0100343611F
:1031A000436903F010030093009B0092036843F00F
:1031B00001030360006800F00100009000984FF4E4
:1031C000C06001900220CDE9020203200490072094
:1031D000059001F5704001A9FEF7B4FD25200021FE
:1031E0000022FFF7A7F82520FFF7A0F806B080BD62
:1031F00010B590F83E30202B0BD100294FF0010480
:1032000018BF002A01D1204610BD90F83C30012B98
:1032100001D1022010BD0123002480F83C3004635A
:1032200000F030FE204610BD10B540F20031C2F271
:10323000000100680968884217D140F24434C2F2A4
:1032400000042078002808BF01F0A8F82078102892
:1032500008BF00F0F1FE2078202808BF01F09EF89A
:103260002078092808BF00F0D3FE40F2003040F279
:103270004431C2F20000C2F200010122FFF7B8FFA0
:1032800010BD00002DE9F04381B0044690F83D00E8
:1032900020280BD10E4600294FF0010055D01746CB
:1032A000002A52D094F83C00012803D1022001B03A
:1032B000BDE8F083012084F83C004FF00009212094
:1032C0001D46C4F8409084F83D00FEF707FEA78431
:1032D000E784A1680746B1F5805F07D1206900281F
:1032E0001CBF30464E46B046064601E04FF000088F
:1032F00084F83C9007E000BF16F8010B2168486095
:10330000E08C0138E084E08C80B1204680213A4690
:103310002B4600F0FBFD80B9002EEDD138F8020BF2
:1033200021686FF35F2048600026E9E720464021CE
:103330003A462B4600F0EAFD18B1032001B0BDE883
:10334000F083202084F83D00002001B0BDE8F08328
:1033500070470000FEE700000268516949054FF020
:1033600000010FD56FF4806353612022016380F860
:103370003D2080F83E10026C42F00402026480F8A6
:103380003C100121084670472DE9F04182B0044607
:10339000C06A1D46164610F5803F0F4618BF01282B
:1033A00023D12068016841F48071016020464FF00C
:1033B000011100223346009500F06EF850B12068EC
:1033C0000068C00544BF4FF400702064032002B0C1
:1033D000BDE8F081206940F20208B0F5804FC0F2EC
:1033E000010808D107F0FE0018E00828D9D0206BAA
:1033F0001228D6D0DAE7062000EAD7102168F0308C
:10340000086108F10601204632462B4600F084F898
:1034100018B1012002B0BDE8F081F8B2216832464F
:103420000861204641462B4600F076F8002818BF78
:10343000012002B0BDE8F081F0B581B0044600681B
:103440004069400724D415460E464F1C04E000BFD7
:103450002068406940071BD42046FFF77DFFA0B9D4
:10346000002FF5D0FEF73AFD16B1401BB042EFD960
:1034700000202021206384F83D1084F83E00216C58
:1034800041F02001216484F83C00012001B0F0BD2E
:10349000002001B0F0BD00002DE9F047DDF82080EC
:1034A0009A461646814601F47F078CB25D1C00BF28
:1034B000D9F800001821B7F5803F08BF1421405803
:1034C000224608BF22461040801AB0FA80F0400918
:1034D000B0421DD1002DEBD0FEF700FDBAF1000F78
:1034E00003D0A0EB08005045E2D900202021C9F804
:1034F000300089F83D1089F83E00D9F8401041F0BD
:103500002001C9F8401089F83C000120BDE8F0878F
:103510000020BDE8F08700002DE9F04381B0984617
:103520001646814601F47F078DB2541CD9F800007D
:103530001821B7F5803F08BF142141582A4608BF1B
:103540002A46114091420ED0416949050FD4002C02
:10355000ECD0FEF7C3FC4FF0200186B1A0EB0800D1
:10356000B042E3D90BE0002001B0BDE8F083016870
:1035700041F4007101606FF4806141610421002019
:103580002022C9F8300089F83D2089F83E00D9F89A
:1035900040201143C9F8401089F83C00012001B0D7
:1035A000BDE8F083F0B581B00446006840690006CC
:1035B00024D415460E464F1C04E000BF2068406925
:1035C00000061BD42046FFF7C7FEA0B9002FF5D098
:1035D000FEF784FC16B1401BB042EFD90020202139
:1035E000206384F83D1084F83E00216C41F02001F6
:1035F000216484F83C00012001B0F0BD002001B03E
:10360000F0BD0000B0B584B040F21C2042F20001D1
:1036100001230024C2F20000C4F20101C0F60073CD
:103620000125CDE90244CDE900444FF4803204760F
:1036300080F82040C0E90A34C56180F8304080E855
:103640001600C0E903444561FEF7CEF9002818BF13
:10365000FEF73CF940F21C20C2F200006946CDE9B9
:1036600000550294FEF738F9002818BFFEF72EF92E
:1036700004B0B0BD81B0002043F630010090C4F228
:1036800002010A6842F004020A600A6802F00402B9
:103690000092009A00900A6842F080020A600A686C
:1036A00002F080020092009A00900A6842F0010243
:1036B0000A600A6802F001020092009A009008680D
:1036C00040F002000860086800F0020000900098D6
:1036D00001B0704780B540F2642045F60001C2F2A7
:1036E0000000C4F2000148F2A06200234FF4804CB5
:1036F000C0F2010280E80E00C0E9033CC0E90533D6
:10370000C0E90733FEF7F0FB002818BFFEF7DEF82C
:1037100080BD000010B58EB040F2B82040F20042EB
:103720000021C2F20000C4F2000242F2CF030D9168
:10373000CDE90B11CDE90911CDE90711CDE905114D
:10374000CDE90311CDE90111C0E90021C0E902135F
:10375000016180218161FFF703F9002818BFFEF79E
:10376000B5F84FF480500A9040F2B820C2F2000041
:103770000AA9FFF747F9002818BFFEF7A7F840F29B
:10378000B820C2F20000FFF7F7FA002818BFFEF7D2
:103790009DF840F2B8200024C2F2000008A9CDE94B
:1037A0000844FFF793F8002818BFFEF78FF8602051
:1037B00001906420CDE9020440F2B820C2F200007A
:1037C00001A900220594FFF78BFA002818BFFEF725
:1037D0007DF840F2B820C2F2000001A90422FFF7F0
:1037E0007FFA002818BFFEF771F840F2B820C2F245
:1037F000000001A90822FFF773FA002818BFFEF79E
:1038000065F840F2B820C2F20000FFF723FA0EB0CC
:1038100010BD000080B540F2003041F20001C2F25C
:103820000000C4F2010100234FF00C0C4FF4E13210
:1038300080E80E00C0E90333C0E905C3C361FFF7A8
:1038400065FC002818BFFEF741F880BDFEE70000C8
:10385000FEE7000000F0070080F00703042B28BFFC
:1038600004234FF0FF3C03380CFA03F338BF002069
:10387000994381400CFA00F022EA000008437047A7
:103880007047000070470000B0B501380024B4EB69
:10389000106F1CBF0120B0BD4EF21005CEF2000526
:1038A00068604FF0FF300F2100F090FB0720AC6004
:1038B00028602046B0BD000080B5FEF7C9FC80BD81
:1038C00070B592B006AC20463021FCF754FE0025BE
:1038D00043F640000595CDE90355CDE90155009526
:1038E000C4F202000168022641F0805101600068C4
:1038F00000F080500090009847F200000095C4F25C
:103900000000016866F38F310160006800F44040F8
:10391000009000980120099010200A900820069637
:10392000CDE90C650E905420CDE90F0604201190CE
:103930002046FEF721FE78B90F20CDE901064FF4AD
:1039400080500395CDE9040501A80221FEF706FD8C
:10395000002804BF12B070BDFDF7B8FF4EF68850C6
:10396000CEF20000016841F4700101607047000070
:1039700080B540F2B820C2F20000FFF7B5F880BD74
:1039800010B540F2FF7E0368C4F2000E40F2000C56
:103990007045C4F2010C0ADD40F60002C4F20002D8
:1039A00090420DD060450BD040F6004204E0B0F1EB
:1039B000804F05D040F20042C4F20002904203D191
:1039C0004A6823F0700313434FF6FF72C4F20002FB
:1039D000904209DC704512DCB0F1804F26D040F2F5
:1039E0000042C4F200021FE044F2FF32C4F20102BE
:1039F00090420FDC604519D044F2000212E040F61C
:103A00000002C4F20002904210D040F60042C4F21C
:103A1000000209E044F60002C4F20102904205D01F
:103A200044F20042C4F20102904203D1CA6823F476
:103A30004073134323F080024B69D1F800E08C6897
:103A40001A4360450260C462C0F828E002D10969E7
:103A5000CCF830100121416110BD000080B501F0AB
:103A60001F014FF0010CD0F820E00CFA01F32EEA10
:103A700003030362036A02FA01F11943016280BD84
:103A8000D0F808C011432CF47F4C41EA032141EAED
:103A90000C01816070470000826822F070021143BF
:103AA00041F007018160704770B5026A40F2000E74
:103AB00022F001020262026A456883690C688E681E
:103AC00023F0730322F00202C4F2010E43EA040C55
:103AD000704542EA060208D070450ED04560C0F835
:103AE00018C049684163026270BDCB6822F00C02C5
:103AF00023F004031A437045F0D125F44073D1E953
:103B0000056533431D43E9E770B5026A40F2000ED4
:103B100022F010020262026A456883690C688E68AE
:103B200023F4E64322F02002C4F2010E43EA042CFF
:103B3000704542EA061208D0704510D04560C0F8C2
:103B400018C049688163026270BDCB686FF04004A1
:103B500022F0C00204EA03131A437045EED125F4A3
:103B60004063D1E9056543EA860343EA8505E5E755
:103B700070B5026A40F2000E22F480720262026A9C
:103B80004568C3690C688E6823F0730322F40072E1
:103B9000C4F2010E43EA040C704542EA062208D042
:103BA000704510D04560C0F81CC04968C16302620E
:103BB00070BDCB6840F2FF441B0222F44062A34375
:103BC0001A437045EED125F44053D1E9056543EA27
:103BD000061343EA0515E5E7B0B5026A22F4805200
:103BE0000262046AD0F804E0C2690B6822F4E6427B
:103BF0008D6842EA032C002324F40052C4F201032E
:103C0000984242EA053304D14A692EF4804545EAD8
:103C1000821EC0F804E0C0F81CC049680164036259
:103C2000B0BD0000D0F820C0036A23F00103036296
:103C3000836923F0F00343EA02122CF00A031943CC
:103C40008261016270470000036A23F0100303627F
:103C50008369D0F820C023F4704343EA02322CF089
:103C6000A00343EA011182610162704780B5806B55
:103C70000021C185C184FFF721F980BD016851E8A9
:103C8000031F026821F4907142E80313002BF5D161
:103C9000016851E8051F026821F0010142E805139F
:103CA000002BF5D1016B01290AD100BF016851E851
:103CB000031F026821F0100142E80313002BF5D125
:103CC000202180F83E1000210163704780B5016813
:103CD000CA6822F04002CA60202180F83D10FFF738
:103CE00037FB80BD80B582B090F83E1022291ED1EE
:103CF0008268B2F5805F02D10169002948D0816AEB
:103D0000B2F5805F07D00AB9026922B10268526831
:103D100002F07F0201E0026852680A700121826AA3
:103D200011448162C18D01390A04C18501D002B0FC
:103D300080BD0168CA6822F02002CA60CA6822F405
:103D40008072CA604A6922F001024A61202180F82B
:103D50003E10016B012923D100210163016851E864
:103D6000031F026821F0100142E80313002BF5D174
:103D700001680A68D20606D5002201920A680192FB
:103D8000496801910199818DFFF796F802B080BDD5
:103D90000168826A49686FF35F2111800221BEE7E2
:103DA000FFF742FA02B080BD10B504460068D4E9BE
:103DB00002C22369016921F4405111430161626922
:103DC00043EA0C01E3691143C268194349F20C63E9
:103DD0009A431143C1604169A26921F4407141F2E3
:103DE0000043114340F48062C4F201039A424161EE
:103DF00002D1FEF77BFB01E0FEF766FBE169636839
:103E00001922B1F5004FA0FB02011CD15A00DB0FB3
:103E1000FCF748FA48F21F51C5F2EB11A0FB012351
:103E20005A096FF0630302FB0300322303EBC00067
:103E3000A0FB01014FF4F87000EA111000EB021032
:103E4000C1F342111AE09A009B0FFCF72BFA48F2DB
:103E50001F51C5F2EB11A0FB01235A096FF0630358
:103E600002FB0300322303EB0010A0FB0101F02052
:103E700000EA511000EB0210C1F34311226808431D
:103E8000906010BD81628285C2850021222201647A
:103E900080F83E20026880F83C10D06840F48070C2
:103EA000D060506940F001005061D06840F02001BE
:103EB0000020D1607047000090F83D10212923D1E7
:103EC0008168B1F5805F01D1016931B1016A026891
:103ED0004B1C03620978516007E0016A036831F8FE
:103EE000022B6FF35F225A600162C18C01390A0410
:103EF000C18418BF70470068C16821F08001C160AB
:103F0000C16841F04001C160704700002DE9F041F7
:103F10000446006800680840884202D10020BDE8DD
:103F2000F0811D460E4690465F1C04E02068006844
:103F30003040B042F2D0002FF8D02DB1FDF7CEFFC7
:103F4000A0EB0800A842F1D9206850E8030F2168CF
:103F500020F4D07041E80302002AF5D1206850E82F
:103F6000050F216820F0010041E80502002AF5D183
:103F7000202084F83D0084F83E00002084F83C00B6
:103F80000320BDE8F081000080B540F20030C2F2AD
:103F90000000FEF795FF80BDFEE70000002848BF47
:103FA000704700F01F01012202FA01F14EF20012E7
:103FB0004009CEF2000242F8201070474EF60C5035
:103FC000CEF200000068C0F3022070474EF6145392
:103FD00000F00F02CEF2000309011A4400F1604321
:103FE000B0F1FF3FC8BF03F5644211707047000095
:103FF0004EF60C51CEF200010A684FF6FF031A404C
:1040000060F30A2242F0806040F0FD700860704763
:1040100040F21020C2F200004FF07E51016040F2E9
:104020001420C2F20000016040F21820C2F2000029
:10403000002101607047000040F210204CF6CD4195
:10404000C2F20000C3F64C61016040F21420C2F2DB
:1040500000004FF07E51016040F2182049F69A119D
:10406000C2F20000C3F699610160704710B540F2DA
:104070007C14C2F2000447F27C2145F25D0245F255
:104080004543C0F60001C0F60002C0F6000320461A
:1040900000F05AFB204600F069FF2046002100F0A6
:1040A00075FF47F28821C0F60001204600F00AFBA8
:1040B00010BD00000000000086B0FEF7D7F8FFF743
:1040C000FFFBFFF7D7FAFFF705FBFFF7A3FBFFF7AF
:1040D00021FBFFF797FAFFF7C9FF40F2B824C2F2BD
:1040E000000420460021FEF779FE20460421FEF759
:1040F00075FE20460821FEF771FE40F2003540F2C1
:104100004434C2F20005C2F20004284621460122CE
:10411000FFF76EF84FF6FF73C0F20F0328462146F3
:104120000122FFF7AFF89FED880B9FED891B9FEDF4
:10413000928A40F27C1747F61A6851EC100BBFEEDA
:10414000009AC2F200070FF2342BC0F600084FF0BD
:10415000400ACDE9041051EC110B0FF23029CDE9E2
:10416000021000BF4FF4FA70FDF7D8FD40F21C2694
:10417000C2F200063046FDF7F5FC30466421FDF73B
:1041800091FC3046FDF72CFC05463046FDF758FD06
:10419000ADB2284601F04FFEDDE9043201F05EFECB
:1041A000DDE9023201F05AFE01F014FE01F054FF85
:1041B00002460B4668A0294646F27C26C0F6000659
:1041C000FCF7E8F840F21000C2F2000090ED000A9F
:1041D00088EE000A30EE090A01F085FD40F22C411C
:1041E000BCEEC00AC4F2000181ED000A086801308B
:1041F00000EE100A40F21020C2F20000B8EE400AB1
:1042000090ED001A21EE000ABCEEC00A81ED020A10
:104210000868013000EE100A40F21420C2F20000DB
:10422000B8EE400A90ED001A21EE000ABCEEC00A7A
:1042300081ED030A0868013000EE100A40F21820F0
:10424000C2F20000B8EE400A90ED001A384621EEA6
:10425000000ABCEEC00A81ED040A00F0D3F905E0C3
:10426000384600F0F9F900283FF47CAF207809289F
:104270000FD1384600210D225B4600F085F9384603
:10428000414600F01FFA38460A2132224B4600F020
:1042900085F9207801280DD100F080F838460021FA
:1042A00000228023CDF800A0019600F081F9384665
:1042B00000F0F2F92078022811D100F06FF846F2F0
:1042C0007C653846002100228023C0F60005CDF829
:1042D00000A0019500F06CF9384600F0DDF9207877
:1042E000032811D100F05AF846F67C253846002103
:1042F00000228023C0F60005CDF800A0019500F053
:1043000057F9384600F0C8F92078202811D100F07C
:1043100045F846F67C653846002100228023C0F629
:104320000005CDF800A0019500F042F9384600F0F4
:10433000B3F92078052893D100F030F8384600F022
:104340004BF88DE700BF00BF000000000000303FC9
:104350006666666666660A406164635F76616C7570
:1043600065203D2025642C20766F6C203D20252E75
:104370003266562E0A000000A037A04C464F52204D
:104380004D59204441524C494E473A00E4B89CE60E
:1043900096B9E5A4A7E5BCBA0000000040F21020E1
:1043A000C2F200004FF07E51016040F21420C2F2D0
:1043B0000000016040F21820C2F200000160704766
:1043C00080B5016890F83820097C406B5143C900E2
:1043D000FCF7AFF880BD000010B5044600F012F9FC
:1043E000204600F039F90028FAD12046002100F0DB
:1043F0005BF910BDF0B581B0054690F870001C4621
:10440000164603280F4616D8DFE800F002070C1105
:10441000E96D2846884706440DE0E96D284688473F
:104420003F1A08E0E96D28468847361A03E0E96D2F
:10443000284688470744B9B2B2B22846234600F05E
:10444000DBFB01B0F0BD0000B0B584B0002BADF8CF
:104450000E10ADF80C20ADF80A304AD0044690F8A2
:104460008C00002845D00898012B07D0032819D0CC
:10447000022803D1C91A0131ADF80E1010F0010560
:1044800017D1BDF80C00B4F84C10884231D3B4F801
:104490004E1088422DD2B4F84820B4F84A300DF1BD
:1044A0000E0015E0D11A0131ADF80C1010F0010525
:1044B000E7D0BDF80E00B4F84810884219D3B4F81C
:1044C0004A10884215D2B4F84C20B4F84E3003A8F4
:1044D0000DF10A0100F0E4F958B1206BBDF80E109F
:1044E000D0F808C0BDF80C20BDF80A302046009571
:1044F000E04704B0B0BD00002DE9F04F83B00F4697
:10450000824690F892905818511C1C468DB283B286
:10451000504639469046009500F082F880B36CB35F
:104520000C9DB9FA89F040094FF0010B002602906A
:1045300019E000BF8AF89200B9B250464246012302
:104540000096FFF781FF1BF07F004FF4FF7000EA39
:104550004B0BA4F1010407F1010704BF01354FF033
:10456000010B20040AD028781BEA000F4846E1D14D
:104570009AF8910000280298E5D1DBE78AF892903A
:1045800003B0BDE8F08F000080B545F2010CC0F625
:10459000000CC0F804C000F0C7F980BD80B545F23A
:1045A000A54CC0F6000CC0F804C000F0BDF980BDF9
:1045B0002DE9F04782B00A9C8A4681465818A11816
:1045C00098468FB283B2484651461546009700F090
:1045D00027F8002818BF002C11D008F107000B9F06
:1045E00080B2C608AAB24846514643460097FFF734
:1045F00083FF013C3744200405F10105F2D102B0EC
:10460000BDE8F08710B5044690F8930010B120463D
:10461000FFF7D6FE2046002100F046F810BD00004E
:10462000F0B581B00646B6F84E401F46069BB0F87E
:104630004C000D46214600F04FFB48B1B6F848004B
:10464000B6F84A102A463B4600F046FB01B0F0BDE2
:10465000002001B0F0BD0000B0B5044600F010FC31
:1046600094F8390094F8381022680844517CC5B297
:104670008D420BD294F8930010B12046FFF7A0FEB4
:104680002046294600F010F80120B0BD204600F079
:1046900075FC0020B0BD000010B5044600F0F0FB32
:1046A000204600F06BFC10BD10B50446006B84F88A
:1046B0003910026820469047206B416820468847A1
:1046C00010BD000010B50446806D884208BF10BDC3
:1046D00004F17400A16500F06BFB204600F058F86F
:1046E00010BD000044F6B111C0F60001C16570476D
:1046F00080B50021CFF6FF71026B016541655168FD
:10470000884780BDB0B50446049884F838204FF43B
:1047100080720025A4F891200122A56584F8395003
:1047200084F86D5084F89320C4E90B300268204669
:10473000616390472046FFF7DBFF2046FFF7D2FF7B
:1047400084F87050B0BD0000B0B582B09C461346EE
:104750000C4645F2013145F2AD12C0F60001C0F63B
:1047600000020546CDF800C000F018FC0DF107006E
:1047700000F016FB9DF8072044F601530146C0F6F1
:10478000000328460094FFF7BDFF02B0B0BD000053
:10479000816DD9B190F88D3090F9812090F9821017
:1047A000002B80F88E2080F88F1008BF7047012BF7
:1047B0000DD190F983309A42B8BF80F88E3090F9CD
:1047C00084209142C4BF80F88F207047704790F9D1
:1047D0007EC090F980309C449445C8BF80F88EC05C
:1047E0009942C8BF80F88F3070470000022B07D075
:1047F000012B08D0002B14BF1044084480B270472E
:10480000401A80B27047801A80B27047022B07D0DE
:10481000012B08D0002B14BF401A104480B27047FF
:10482000801A80B27047084480B2704710B582B0D9
:10483000B0F85010B0F85420B0F85230B0F856C06C
:104840000446CDF800C0FFF7EBFE20B3B4F84810E3
:10485000B4F850000122814284F88C2038BFA4F8BB
:104860004800B4F84A10B4F85200814288BFA4F856
:104870004A00B4F84C10B4F85400814238BFA4F890
:104880004C00B4F84E10B4F85600814288BFA4F82A
:104890004E0002B010BD002084F88C0002B010BDA4
:1048A000B0B505880C889D4204EB050C1FFA8CFE00
:1048B000144638BF2C46E6450CBF2C46A3F1010E2A
:1048C0009D4228BFE6469C424FF0000C0FD21FFAD3
:1048D0008EF595420BD9944238BF14469D4288BF4D
:1048E0009E460480AEEB04004FF0010C0880604649
:1048F000B0BD000010B582B0B0F83EE0DDF810C0E9
:10490000C46AA2EB0E0292B2CDF800C0A04702B07A
:1049100010BD000080B582B0DDF810C0CDF800C039
:10492000FFF7E8FF02B080BD2DE9F04F81B0984657
:1049300092468B4606464FF6FF7900F0AFFD72684F
:1049400098F800103046904748452BD0A9F1010156
:1049500008F1010400278DB208E000BF0744726827
:1049600014F8011B3046904748451CD083B2AB4237
:10497000F5D01FFA8BF11FFA8AF23046FFF73AFDA5
:1049800096F870100329E9D8DFE801F0050709025D
:10499000AAEB000AE2E78344E0E78244DEE7ABEB00
:1049A000000BDBE70027B8B201B0BDE8F08F0000D4
:1049B0000020704710B50C4600F008F8611EC9B21F
:1049C000012202FA01F1401A40B210BD10B50246B0
:1049D0000068137B90F800C003EB010E5FFA8EF4C1
:1049E000082C2CFA03FC0AD3441C1460C3F10803FE
:1049F0004078DBB298404CEA000CAEF1080E4FF064
:104A0000FF3088402CEA0000C0B282F80CE010BDF4
:104A10002DE9F04F83B0044600F1600500F044F941
:104A200094F87A1094F96BB02846FFF7C3FF94F816
:104A30007B1082462846FFF7BDFF94F87C1007469E
:104A40002846FFF7B7FF94F96A808146B8F1010F55
:104A500070DB0BEB0701494294F87070B4F8640006
:104A60004EB2514632463B46CDF80890FFF7BEFEA7
:104A70008146B4F86600514632463B46A4F864903D
:104A8000FFF7C4FE032FA4F8660008D8DFE807F09C
:104A9000020A111909EB080300EB0B0116E04B4663
:104AA000014613E009F10103A3EB0B0900EB080138
:104AB0000CE009F10103411CA3EB0809A1EB0B0079
:104AC00004E0411C09EB0B03A1EB08008FB21FFAB5
:104AD00089F182B29BB220460097FFF7A1FDDDF875
:104AE000089038B30020A4F8680000BF94F876104E
:104AF0002846FFF76BFF94F8771006462846FFF725
:104B000065FF074620463146002200F017F8204690
:104B10003946012200F012F828460121FFF756FF1E
:104B20000028EFD194F969005845DFDB94F86E0056
:104B300084F89200484603B0BDE8F08F2DE9F04FAD
:104B400087B0029290F8682090F8697004460E468B
:104B500094F86A00F1B2A0EB020A5FFA8AF094F8C6
:104B600070B0CDE90410D0468142B4F86400B4F8C6
:104B70006650069638BFB04656B2B9467FB201922B
:104B800031463A465B46FFF731FE039028463146F0
:104B90003A465B46FFF73AFE0299024681B194F825
:104BA0006E004F4684F89200069EDDE90459039991
:104BB0005FFA88F32046CDF800B0FFF745FC06E029
:104BC00094F86D004F46069EDDE9045930B14D451D
:104BD00009D3A6EB0A0601370022B9E794F86F0063
:104BE00084F89200E3E7019884F86970304484F80F
:104BF000680007B0BDE8F08F10B5A0F86410194642
:104C00000446A0F8662000F00BF800280FBF002033
:104C100001462046FFF7FCFE80B210BD405C7047A5
:104C200070B50C46816DFF2C01F1170104D8612C81
:104C300021D3B0F8880029E0B0F88A000E18354674
:104C40002846002100F02CF806442846022100F0F6
:104C500027F8A04205F10405F2D33088000400BF14
:104C600000BA30B1A0420BD0B078315A06440804E3
:104C7000F6E7012106E0412C09D3B0F8860005E0F3
:104C8000F01C0021002918BF002070BD01444878A5
:104C900020B10A78A242F9D1881C70BD002070BDF5
:104CA000405A00BA000C704710B5044644F8601F23
:104CB0000020217E20732046FFF788FE617EA072CF
:104CC0002046FFF783FE94F83210E072B1FA81F0CB
:104CD0004009A173E07310BD80B54FF0000C834212
:104CE0004FF0000E88BF4FF0010E9A4288BF4FF080
:104CF000010C0EEA0C008A4238BF4EEA0C0080BD5F
:104D00002DE9F04102F00705012490F8926004FAC1
:104D100005F7022EBC4628BF4FF0000CB6F1010E7D
:104D200018BFBE460768DDF818803F7C22F00706F2
:104D3000426BB8F1000F07FB06F620D012FA86F29C
:104D400011440CE0428F90F892601144012E98BFFC
:104D5000A44618BFA6461A0408BFBDE8F0810A7829
:104D6000013B42EA0C0282EA0E020A706A1C12F04F
:104D70000705E7D04FEA4C0C4FEA4E0EEBE7B0B216
:104D800008441044013800BF10F8011F013B41EAFC
:104D90000C0181EA0E011A040170F5D1BDE8F08121
:104DA000014640F245300122C2F200000A7070470D
:104DB000B0B50D46044608460021FFF72FFF2070CE
:104DC00028460121FFF72AFF607028460221FFF7DD
:104DD00025FFA07028460321FFF720FFE07028463A
:104DE0000421FFF71BFF207128460521FFF716FF5E
:104DF000607128460621FFF711FFA07128460721A0
:104E0000FFF70CFFE07128460821FFF707FF20722B
:104E100028460921FFF702FF607228460A21FFF7A2
:104E2000FDFEA07228460B21FFF7F8FEE07228462F
:104E30000C21FFF7F3FE207328460D21FFF7EEFE4D
:104E4000607328460E21FFF7E9FEA07328460F2164
:104E5000FFF7E4FEE07328461021FFF7DFFE207421
:104E600028461121FFF71CFF608228461321FFF717
:104E700017FFA08228461521FFF712FFE082B0BD80
:104E80002DE9F041044690F83880006894F83960C4
:104E9000477C0025E9B2F2B2204600F00DF8013659
:104EA000F0B2B84228BFBDE8F0810135E8B2404514
:104EB000F0D3BDE8F081000080B582B00368D0F87F
:104EC00034C01B7C5943C9001CFA81FC0021CDF879
:104ED00000C000F037F802B080BD0000B0B590F817
:104EE00038100568CB00838795F810C090F83930EA
:104EF00095F811E04FEACC0CDA005C18A0F83AC043
:104F0000C287744588BFAEEB0301C90001EBC30142
:104F1000A0F84020A0F8421069694164B0BD0000CB
:104F200080B5FFF7DBFF80BD80B50021A0F84810F9
:104F3000B0F84410026CA0F84A10C264FFF776FC87
:104F400080BD000080B582B0DDF810C0D0F808E068
:104F50008DF805108DF806208DF804306B460F2172
:104F60000122CDF800C0F04702B080BD80B5D0F876
:104F700008C00A2100220023E04780BD80B5D0F898
:104F800008C0102100220023E04780BD80B5D0F882
:104F900008C00A460B210023E04780BD2DE9F041FF
:104FA000DDF818801C4615460E46074600F00AF844
:104FB0003846C7E90265C7E9044800F019F8BDE8BA
:104FC000F081000045F241420021C0F600024FF49A
:104FD0007F430160A0F8233080F82610C0E9022248
:104FE000C0E904228161FF2180F828107047000089
:104FF00080B5D0F808C0092100220023E04780BD19
:1050000000294FF6FF7008BF70470A2918BF0846ED
:105010007047000080B5D0F810C01921002200238D
:10502000E04780BD80B582B08DF807100DF1070212
:10503000012100F003F802B080BD000080B5D0F877
:1050400010C013460A461721E04780BD80B5D0F84E
:1050500010C0182100220023E04780BDB0B582B007
:1050600019291BD018292ED0172935D18AB340F21F
:10507000C53CC2F2000C9CF8000040F2C63E591E2E
:10508000C2F2000E11F8013F013AC4B20130150618
:105090000EF80430F6D18CF800001AE090F82410D5
:1050A00040F2C530C2F20000037840F2642040F2C2
:1050B000C6324FF47A75C2F20000C2F200020095C7
:1050C000FCF7DAFF05E040F2C530C2F20000002133
:1050D0000170012002B0B0BD002002B0B0BD0000E0
:1050E00080B5D0F80CC0192100220023E04780BD14
:1050F00080B5D0F80CC00A4616210023E04780BDD9
:1051000080B5D0F80CC00A4615210023E04780BDC9
:1051100080B5D0F80CC013460A461721E04780BD81
:10512000F0B581B00E4604460DF103050AE000BF5C
:10513000A1F11800022817D2E668204600220023B9
:10514000B0473E46374617F8011B1729F0DCA1F19E
:105150001500022813D27278E768204600238DF8E4
:105160000320B8470236EDE7FE2914D172782046B5
:1051700029218DF8032000F075F90236E2E717299E
:1051800009D1707801218DF8030020462A46FFF7E7
:10519000BFFF0236D6E701B0F0BD000080B5D0F801
:1051A0000CC0182100220023E04780BDF0B581B07B
:1051B0001546A1F11402052A67D804461E46DFE809
:1051C00002F003112A2F4E5594F824002A46FF2896
:1051D00004BF782084F82400276920463346B84766
:1051E00001B0F0BD40F2E636C2F200063078012888
:1051F00002D12046FFF70EFF2046FFF727FF20468B
:105200000021FFF70FFF20462946FFF70BFF012083
:10521000307001B0F0BD20462946FFF703FF31E0B2
:1052200040F2E637C2F200073878012802D1204662
:10523000FFF7F0FE192D0AD320461821324600F060
:1052400017F9183DE8B2182806F11806F4D8E9B2A3
:105250002046324600F00CF90020387012E040F28F
:10526000E630C2F20000002101700BE040F2E635AA
:10527000C2F200052878012802D12046FFF7CAFEB5
:1052800000202870012001B0F0BD002001B0F0BD69
:1052900010B5D0F814C02821002200230446E047AE
:1052A000D4F80CC02046142100220023E0472046F9
:1052B0004B21012200F0D6F82068292102792046EE
:1052C00000F0D0F820464B21002200F0CBF82068F7
:1052D00029210279204600F0C5F820464B21012201
:1052E00000F0C0F8206829214279204600F0BAF881
:1052F00010BD00008A7C016080F822207047000009
:10530000B0B50D46044600F01FF808B10120B0BD4D
:10531000092D0DD00A2D14D12046FFF7B9FF41F217
:10532000A601C0F601012046FFF7FAFE0120B0BD3C
:1053300041F2E801C0F601012046FFF7DBFF012042
:10534000B0BD0020B0BD00002DE9F0410B3904468E
:1053500004294FF0000088BFBDE8F0811546DFE862
:1053600001F0035F131F30002046002D07BF41F2FC
:10537000DB01C0F6010141F2E001C0F60101FFF7D7
:10538000CFFE0120BDE8F081002D4BD041F29F01FE
:10539000C0F601012046FFF7C3FE2068C07C4AE04A
:1053A0002046FFF7FBFE20468121FFF7A9FE20469D
:1053B0002946FFF79DFE2046FFF792FE0120BDE83B
:1053C000F08120461E46FFF7E9FE707994F822101E
:1053D00001EBC007204640215FFA87F8FFF790FEF7
:1053E0004FEA181000F110012046FFF789FE07F080
:1053F0000F012046FFF77CFEB07940F0B001204657
:10540000FFF776FE30793268C000C1B22046FFF760
:105410007FFE013D2806F5D12046FFF761FE012001
:10542000BDE8F08141F29801C0F601012046FFF786
:1054300077FE2068807C84F822000120BDE8F0819E
:1054400000207047282903D0292902D00120704765
:10545000012280B51046FCF761FCBDE880400120C8
:105460007047000080B5D0F814C00023E04780BD2D
:10547000F0B581B017460D460646FFF7E7FD30460A
:105480004021FFF7CFFD3469304617212A463B46BD
:10549000A0473046FFF7BEFD01B0F0BD002180F807
:1054A000261070476FF0010202F1010299B10A293A
:1054B00011D090F826304FF6FE7273B1B0F820C0CC
:1054C00001F03F01013B41EA8C1180F82630018454
:1054D000180608BF0A4690B27047FB2903D94FF05F
:1054E000010C052318E0F72903D94FF0030C04231E
:1054F00012E0EF2903D94FF0070C03230CE0DF295A
:1055000003D94FF00F0C022306E0BF299CBF88B2DD
:1055100070474FF01F0C012301EA0C0180F8263080
:10552000018490B270475FEA400C08BF91F0000F11
:105530004FEA8C234FEAC12243EA51514FEA1C50F3
:1055400018BF00F5F0404FEA300018BF41F00041AD
:105550005FEA6C5C00F02980BCF1FF3F08BF40F0BF
:1055600080407047130C06BF12044FF0100C4FF030
:10557000000C130E04BF12020CF1080C130F04BF31
:1055800012010CF1040C930F04BF92000CF1020CF9
:10559000D30F04BF52000CF1010C11464FF0000272
:1055A000A0F11F00A0EB0C00704711F0004F08BFE6
:1055B000704731F000413FF4D5AF0B0C06BF090432
:1055C0004FF0100C4FF0000C0B0E04BF09020CF151
:1055D000080C0B0F04BF09010CF1040C8B0F04BF66
:1055E00089000CF1020CCB0F04BF49000CF1010C37
:1055F000CCF1200322FA03F341EA030102FA0CF290
:10560000A0EB0C0000F10100704723F07F4720F071
:105610007F4C80EA030000F00040ACEB070303F589
:105620007C5303F1FF032DE9804909B44FEA144389
:1056300024EA03484FEA154B25EA0B4E0FF20426E5
:1056400006EB13273E7803FB0667C7F5000707FB49
:1056500006F64FEAD64606F102064FEA543707FB34
:10566000066CCCF1005C4FEA1C472CEA074C0CFBA3
:1056700006F507FB06F404EB15464FEA96164908B3
:105680005FEA320234BF00204FF000404FEAD137CA
:1056900006FB07FC4FEA1C4C0CFB0BF7D21B03FB71
:1056A0000CF761EB07010CFB0EF7B0EB074072EB58
:1056B00017420CFB08F734BFA2EB0742B2EB0742DC
:1056C00061EB17414FEA0C444FEA910706FB07FCD8
:1056D0004FEA1C4C0CFB0BF7B0EBC74072EB573298
:1056E00003FB0CF734BFA2EBC742B2EBC74261EB3E
:1056F00057310CFB0EF7B0EBC70072EB57720CFB87
:1057000008F734BFA2EBC702B2EBC70261EB5771D7
:105710004FEA816141EA92114FEA826242EA9012B5
:105720004FEA806004EBCC04039F4FEAD13706FBBD
:1057300007FC4FEA1C4C0CFB0BF7D21B03FB0CF7CE
:1057400061EB07010CFB0EF7B0EB074072EB174261
:105750000CFB08F734BFA2EB0742B2EB074261EB48
:1057600017414FEA8C5504EB9C244FEA910706FB46
:1057700007FC4FEA1C4C0CFB0BF7B0EBC74072EB7D
:10578000573203FB0CF734BFA2EBC742B2EBC74260
:1057900061EB57310CFB0EF7B0EBC70072EB5772A1
:1057A0000CFB08F734BFA2EBC702B2EBC70261EBF8
:1057B00057714FEA816141EA92114FEA826242EAEF
:1057C00090124FEA806015EB4C2544F100044FEA3B
:1057D000D13706FB07FC4FEA1C4C0CFB0BF7D21B26
:1057E00003FB0CF761EB07010CFB0EF7B0EB074076
:1057F00072EB17420CFB08F734BFA2EB0742B2EB87
:10580000074261EB17414FEA813141EA92414FEA89
:10581000823242EA90424FEA80304FEA0C7615EB32
:105820001C1544F1000448EA03434EEA0B484FF0CC
:10583000000EB2EB080C71EB030724BF6246394639
:105840004EEB0E0E4FF0000B0018524149414BEB4E
:105850000B0BB2EB080C71EB03077BF1000B24BFC1
:10586000624639464EEB0E0E4FF0000B00185241C7
:1058700049414BEB0B0BB2EB080C71EB03077BF1CF
:10588000000B24BF624639464EEB0E0E51EA02076A
:1058900018BF46F0010616EB0E7655F1000254F1E2
:1058A000000103D5BDE88901BDE80088BDE8890194
:1058B000BDE80048B619524141EB0101A3F10103D3
:1058C000704780807F7E7D7C7B7A7978777676756D
:1058D0007473727171706F6E6E6D6C6C6B6A6A69E5
:1058E0006868676666656464636362616160605F7F
:1058F0005F5E5E5D5D5C5C5B5B5A5A5959585857F8
:10590000575656555555545453535252525151505F
:1059100050504F4F4F4E4E4D4D4D4C4C4C4B4B4BB2
:105920004A4A4A49494948484847474747464646F8
:105930004545454444444443434343424242424133
:1059400041419C46002B30D477002BD04FEA3707DB
:105950001CB503B44FF010004FF01001BAF1000F66
:1059600006D0BCF1000FDCBF40F0080040F0080199
:105970004FF000000FBCBDE810400BF1010BBBF174
:10598000010F08BF5FEA170722BF12F1010211F1F0
:1059900001014FF0004143F1000300F0004043EAF1
:1059A00000007047F9D35708D0E746EA06464FEAA9
:1059B000164613F1400F1FDD13F1200FDFBF164312
:1059C0000A46002120335B42BED0C3F1200746EADD
:1059D00006464FEA164602FA07F746EA070622FA93
:1059E00003F2C3F1200701FA07F742EA070221FA9E
:1059F00003F14FF00003A7E746EA020646EA06462F
:105A00004FEA164646EA0106BCBF46EA0646360C91
:105A10004FF000034FF000024FF0000194E72DE932
:105A2000804C70B49A46934691E8380007C831EA32
:105A3000400C48BF34EA430C03D5FFF7E6FDFFF7FF
:105A400080FFF0BCBDE8008C2DE9804C70B49A4614
:105A5000934691E8380007C810F0804F08BF13F054
:105A6000804F03D100F005F8FFF76BFFF0BCBDE8F5
:105A7000008C20F07F4723F07F4C80EA030000F089
:105A8000004007EB0C03A3F57C53A3F1FE0392F057
:105A9000000F00F0B38095F0000F00F077802DE943
:105AA00001494FEA114021EA00484FEA144624EA2E
:105AB000064700FB06FC08FB06F607FB08F818EB98
:105AC00006484CEB164C00FB07F718EB07484CEB6D
:105AD00017404FEA124B22EA0B4E4FEA154625EAD1
